:100000000C942A000C943F000C943F000C943F0089
:100010000C943F000C943F000C943F000C943F0064
:100020000C943F000C943F000C943F000C943F0054
:100030000C943F000C943F000C943F000C943F0044
:100040000C943F000C943F000C943F000C943F0034
:100050000C943F0011241FBECFE5D8E0DEBFCDBF1A
:1000600010E0A0E6B0E0E8EFFDE002C005900D92E0
:10007000A438B107D9F70E9441000C94FA060C94F9
:100080000000CF93DF9300D000D000D0CDB7DEB713
:100090000E94E7020E94ED0160E081E00E94D6022A
:1000A00080E790E00E941F0219821A821B821C8244
:1000B000EE24E3941E8200E0F12CD12C11E060E0EC
:1000C00081E00E94D60280E790E00E941F020E9419
:1000D00002035C018D838F3FD1F38A30C8F461E065
:1000E000812F0E94D602AD816A2F70E080E090E0FF
:1000F0000E9489050E9486021F5FB1E0EB1216C0C4
:10010000DD0C8D2D880F880FD80E2D81D20E0EC0DC
:100110008D818A3058F0833649F061E0812F0E944A
:10012000D6028D810E94B9011F5FE12C9E81913022
:1001300049F4AD81AD3331F0FF0C8F2D880F880F5E
:10014000F80EFA0EBB24BDE2AB16B10479F02CF424
:100150008BE2A816B104B1F018C09FE2A916B10451
:1001600069F0A8E7AA16B10429F00FC0B1E0BE8378
:100170000DE20BC021E02E8308E707C081E08E83EB
:100180000FE203C091E09E830BE2AD81AD3309F035
:1001900097C00D3221F118F40B3299F091C00F3253
:1001A00061F1083709F08CC0DF9CB0011124072EE3
:1001B000000C880B990B0E948B051F5F0E94860222
:1001C0007FC06F2D70E06D0D711D072E000C880B28
:1001D000990B0E948B051F5F0E94860271C06D2DD6
:1001E00070E06F197109072E000C880B990B0E94A3
:1001F0008B051F5F0E94860263C08D2D6F2D0E94AC
:10020000AD06682F70E080E090E00E948B05C62E5E
:10021000B72EA82E992E262F372F482F592F0E9400
:10022000E104862E772E682E592E20E030E0A901B9
:100230000E943B0618162CF08C2C7B2C6A2C592C17
:1002400008C080E090E0A0E8BFE389839A83AB8395
:10025000BC83FF2019F11F5F6C2D7B2D8A2D992DFA
:100260000E94860220E030E040E85FE369817A8105
:100270008B819C810E944E05811122C08EE20E94DA
:10028000B90120E030E048EC52E4682D772D862D4E
:10029000952D0E9440060E94860212C00E94E30231
:1002A00060E081E00E94D60280E790E00E941F0299
:1002B00061E081E00E94D6028DE790E00E941F027B
:1002C0009D81933609F0FBCE0E94E30260E081E05D
:1002D0000E94D60280E790E00E941F02EE24E39481
:1002E0001E8200E0F12CD12C11E0E9CE0F931F9378
:1002F000CF93DF9300D000D0CDB7DEB7082F84E0D6
:10030000898385E08A8386E08B8387E08C8310E095
:1003100014C0402F50E0012E02C0559547950A9415
:10032000E2F74170E1E0F0E0EC0FFD1FE10FF11D9D
:10033000608180E00E940A041F5F143050F30F9028
:100340000F900F900F90DF91CF911F910F91089513
:1003500041E063E081E00E940A0483EF91E00197AD
:10036000F1F700C0000040E063E081E00E940A0471
:100370000895CF93C82F41E061E081E00E940A0414
:1003800040E062E081E00E940A048C2F82958F7029
:100390000E9476010E94A8018C2F0E9476010E9483
:1003A000A801CF910895CF93C82F40E061E081E08C
:1003B0000E940A0440E062E081E00E940A048C2F5F
:1003C00082958F700E9476010E94A8018C2F0E9456
:1003D00076010E94A801CF910895CF93C4E006C092
:1003E00041E06C2F80E00E948B03CF5FC830C0F3E8
:1003F000C1E006C041E06C2F81E00E948B03CF5F1B
:10040000C430C0F38FE097E20197F1F700C000001D
:1004100082E00E9476010E94A80182E00E9476019B
:100420000E94A80188E00E9476010E94A8018CE049
:100430000E94D30181E00E94D301CF910895CF9310
:10044000DF93EC0103C00E94B901219688818111DC
:10045000FACFDF91CF910895CF92DF92EF92FF9282
:100460001F93CF93DF93CDB7DEB72A970FB6F894DB
:10047000DEBF0FBECDBF6B017C01FE0131968AE06D
:10048000DF011D928A95E9F7C114D104E104F1045A
:1004900019F480E30E94B90110E015C0C701B6014C
:1004A0002AE030E040E050E00E94B906E1E0F0E0F0
:1004B000EC0FFD1FE10FF11D605D6083C22ED32E96
:1004C000E42EF52E1F5FC114D104E104F10431F7CD
:1004D0000DC0E12FF0E0319781E090E08C0F9D1F7F
:1004E000E80FF91F80810E94B90111501111F1CF5D
:1004F0002A960FB6F894DEBF0FBECDBFDF91CF9125
:100500001F91FF90EF90DF90CF9008958F929F9270
:10051000AF92BF92CF92DF92EF92FF926B017C017C
:1005200020E030E0A9010E944E0588233CF48DE2D2
:100530000E94B901F7FAF094F7F8F094C701B601F8
:100540000E9453054B015C010E948B059B01AC018D
:10055000C701B6010E94E1046B017C0120E030E09C
:10056000A9010E944E058823A1F0C501B4010E9493
:100570002C028EE20E94B90120E030E040E251E41A
:10058000C701B6010E9440060E9453050E942C023A
:1005900004C0C501B4010E942C02FF90EF90DF90CF
:1005A000CF90BF90AF909F908F900895662329F0D1
:1005B000613021F490E4980F01C0982F892F806852
:1005C0000E94D301089581E00E94D3010895CF9342
:1005D000C0E006C040E06C2F82E00E948B03CF5F3A
:1005E000C430C0F3C4E006C041E06C2F82E00E943A
:1005F0008B03CF5FC830C0F36FEF82E00E948D04A1
:10060000CF910895AF92BF92CF92DF92EF92FF9277
:100610000F931F93CF93DF93CDB7DEB769970FB6D4
:10062000F894DEBF0FBECDBF84E08A8385E08B8364
:1006300086E08C8387E08D831E8281E08F8382E059
:10064000888783E0898780E1E0E6F0E0DE011A96A2
:1006500001900D928A95E1F7B12C47C0CB2CD12C9B
:10066000E2E0F0E0EC0FFD1FEC0DFD1DA08040E08E
:100670006A2D82E00E940A0410E02FC0E12EF12CC6
:10068000E6E0F0E0EC0FFD1FEE0DFF1D0081AE0176
:100690004F5F5F4F602F82E00E94A3048981811128
:1006A0001BC0EE0CFF1CEE0CFF1C81E090E08C0FD9
:1006B0009D1FE80EF91EF701EC0DFD1D118507C009
:1006C000AE014F5F5F4F602F82E00E94A3049981CB
:1006D0009923B1F3812F0EC01F5F143078F241E0EF
:1006E0006A2D82E00E940A04B39493E09B1508F0FF
:1006F000B5CF8FEF69960FB6F894DEBF0FBECDBFB2
:10070000DF91CF911F910F91FF90EF90DF90CF90ED
:10071000BF90AF900895683008F076C041113CC09A
:10072000813099F028F08230E9F0833041F16EC0D9
:100730002AB381E090E002C0880F991F6A95E2F722
:10074000809582238ABB81E0089527B381E090E001
:1007500002C0880F991F6A95E2F78095822387BBB4
:1007600081E0089524B381E090E002C0880F991FD2
:100770006A95E2F78095822384BB81E0089521B3D6
:1007800081E090E002C0880F991F6A95E2F780959A
:10079000822381BB81E00895813091F028F082307E
:1007A000D9F0833029F134C02AB381E090E002C04F
:1007B000880F991F6A95E2F7822B8ABB81E0089522
:1007C00027B381E090E002C0880F991F6A95E2F795
:1007D000822B87BB81E0089524B381E090E002C0C2
:1007E000880F991F6A95E2F7822B84BB81E00895F8
:1007F00021B381E090E002C0880F991F6A95E2F76B
:10080000822B81BB81E0089582E0089582E0089503
:1008100082E00895683008F078C041113CC0813012
:1008200099F028F08230E9F0833041F170C02BB3A9
:1008300081E090E002C0880F991F6A95E2F78095E9
:1008400082238BBB81E0089528B381E090E002C051
:10085000880F991F6A95E2F78095822388BB81E013
:10086000089525B381E090E002C0880F991F6A9532
:10087000E2F78095822385BB81E0089522B381E071
:1008800090E002C0880F991F6A95E2F78095822355
:1008900082BB81E008954130E1F5813091F028F08C
:1008A0008230D9F0833029F136C02BB381E090E05B
:1008B00002C0880F991F6A95E2F7822B8BBB81E0FB
:1008C000089528B381E090E002C0880F991F6A95CF
:1008D000E2F7822B88BB81E0089525B381E090E0A8
:1008E00002C0880F991F6A95E2F7822B85BB81E0D1
:1008F000089522B381E090E002C0880F991F6A95A5
:10090000E2F7822B82BB81E0089582E0089582E0C5
:10091000089582E0089582E00895813049F028F03A
:10092000823049F0833051F00CC06BBB81E00895F8
:1009300068BB81E0089565BB81E0089562BB81E0FA
:10094000089582E008956830C0F5813091F028F074
:100950008230D9F0833029F132C089B390E002C0EF
:10096000959587956A95E2F78170FA01808381E019
:10097000089586B390E002C0959587956A95E2F751
:100980008170FA01808381E0089583B390E002C012
:10099000959587956A95E2F78170FA01808381E0E9
:1009A000089580B390E002C0959587956A95E2F727
:1009B0008170FA01808381E0089582E0089582E0E9
:1009C00008955058BB27AA270E94F9040C940106E9
:1009D0000E94F30538F00E94FA0520F039F49F3F99
:1009E00019F426F40C94F0050EF4E095E7FB0C9452
:1009F000EA05E92F0E94120658F3BA176207730737
:100A00008407950720F079F4A6F50C9434060EF4CB
:100A1000E0950B2EBA2FA02D0B01B90190010C010E
:100A2000CA01A0011124FF27591B99F0593F50F426
:100A3000503E68F11A16F040A22F232F342F44277E
:100A4000585FF3CF469537952795A795F040539576
:100A5000C9F77EF41F16BA0B620B730B840BBAF046
:100A60009150A1F0FF0FBB1F661F771F881FC2F7B1
:100A70000EC0BA0F621F731F841F48F487957795C5
:100A80006795B795F7959E3F08F0B0CF9395880F7F
:100A900008F09927EE0F9795879508950E94C6054F
:100AA00008F481E008950E945A056894B1110C94ED
:100AB000350608950E941A0688F09F5798F0B92FBE
:100AC0009927B751B0F0E1F0660F771F881F991F83
:100AD0001AF0BA95C9F714C0B13091F00E943406EB
:100AE000B1E008950C943406672F782F8827B85FFB
:100AF00039F0B93FCCF3869577956795B395D9F7DB
:100B00003EF490958095709561957F4F8F4F9F4FE4
:100B10000895E89409C097FB3EF4909580957095F0
:100B200061957F4F8F4F9F4F9923A9F0F92F96E939
:100B3000BB279395F695879577956795B795F111AE
:100B4000F8CFFAF4BB0F11F460FF1BC06F5F7F4F4B
:100B50008F4F9F4F16C0882311F096E911C077235D
:100B600021F09EE8872F762F05C0662371F096E866
:100B7000862F70E060E02AF09A95660F771F881F35
:100B8000DAF7880F9695879597F90895990F0008D9
:100B9000550FAA0BE0E8FEEF16161706E807F9074F
:100BA000C0F012161306E407F50798F0621B730BEA
:100BB000840B950B39F40A2661F0232B242B252B6B
:100BC00021F408950A2609F4A140A6958FEF811D0E
:100BD000811D089597F99F6780E870E060E00895AF
:100BE0009FEF80EC089500240A9416161706180645
:100BF0000906089500240A94121613061406050621
:100C00000895092E0394000C11F4882352F0BB0FB1
:100C100040F4BF2B11F460FF04C06F5F7F4F8F4F14
:100C20009F4F089557FD9058440F551F59F05F3F4F
:100C300071F04795880F97FB991F61F09F3F79F0FE
:100C400087950895121613061406551FF2CF469580
:100C5000F1DF08C0161617061806991FF1CF869502
:100C60007105610508940895E894BB2766277727E6
:100C7000CB0197F908950E94C60508F48FEF0895F7
:100C80000E9453060C9401060E94F30538F00E945E
:100C9000FA0520F0952311F00C94EA050C94F00568
:100CA00011240C9435060E94120670F3959FC1F32F
:100CB000950F50E0551F629FF001729FBB27F00D0A
:100CC000B11D639FAA27F00DB11DAA1F649F66275F
:100CD000B00DA11D661F829F2227B00DA11D621FAE
:100CE000739FB00DA11D621F839FA00D611D221F68
:100CF000749F3327A00D611D231F849F600D211D4C
:100D0000822F762F6A2F11249F5750409AF0F1F0CE
:100D100088234AF0EE0FFF1FBB1F661F771F881F37
:100D200091505040A9F79E3F510580F00C94EA0580
:100D30000C9435065F3FE4F3983ED4F3869577959F
:100D40006795B795F795E7959F5FC1F7FE2B880FDD
:100D5000911D9695879597F90895991B79E004C0A0
:100D6000991F961708F0961B881F7A95C9F78095EA
:100D70000895052E97FB1EF400940E94D00657FD9F
:100D800007D00E94D80607FC03D04EF40C94D0067E
:100D900050954095309521953F4F4F4F5F4F0895A7
:100DA00090958095709561957F4F8F4F9F4F0895D7
:100DB000A1E21A2EAA1BBB1BFD010DC0AA1FBB1F5F
:100DC000EE1FFF1FA217B307E407F50720F0A21BD1
:100DD000B30BE40BF50B661F771F881F991F1A943E
:100DE00069F760957095809590959B01AC01BD0168
:080DF000CF010895F894FFCF34
:100DF8000708092F040506780102032D63003D2B1F
:100E08002043414C4C43554C41544F52004572725B
:040E18006F720000F5
:00000001FF
